:020000020000FC
:100000000C9404000C94D20048E04EBF4FEF4DBF5B
:1000100043E04093690041E04DBB7894A0E35A9AD5
:100020000FEF0AB904B9289896D01BD021E000EC54
:1000300029D091D00C941C000E94C800399A419894
:100040008FD0419A39983199FECF319BFECF3199AB
:10005000FECF3AD039D038D00E94740000EC12D0D4
:10006000EBCF03E30FD077D002E30CD074D008E2DB
:1000700009D071D00CE006D001E004D06CD006E0CD
:1000800001D00895B02FB07FBBB92998289A5BD0D2
:1000900028985CD0B02FB295B07FBBB9289A53D0C6
:1000A000289854D00895B02FB07FBBB9299A289AC8
:1000B0004AD028984BD0B02FB295B07FBBB9289AC0
:1000C00042D0289843D0089518E03327319BFECFC3
:1000D00051D0319B03C00894331F01C0330F3199B5
:1000E000FECF1A9599F70895C32F343EF8F4C4361D
:1000F0004AF0D4E60E949C000A0F0E9453002BD0C5
:10010000CA307AF0CA303AF0DAE00E949C000A0F56
:100110000E94530020D00C2F0A0F0E9453001BD0C6
:10012000089500E30E94530016D0F5CF02E30E9429
:10013000530011D0C85CE6CF0027CD171AF0039505
:10014000CD1BFBCF08950000000008954AE5FBDFBA
:100150004A95E9F7089558E2F9DF5A95E9F70895C5
:100160005FEF62ED72E07A95F1F76A95D9F75A95EB
:10017000C1F70895442746BD44E647BD4AE045BD62
:1001800045B341FFFDCF442745BD42E045BB08953F
:100190004FEF5FEF64E16A95F1F75A95D9F74A9509
:1001A000C1F7089520FF03C02D9AE09AFDCF18955E
:00000001FF
