:100000000C9434000C943E000C943E000C943E0082
:100010000C943E000C943E000C943E000C943E0068
:100020000C943E000C943E000C943E000C943E0058
:100030000C943E000C943E000C943E000C943E0048
:100040000C943E000C943E000C943E000C943E0038
:100050000C943E000C943E000C943E000C943E0028
:100060000C943E000C943E0011241FBECFEFD8E04C
:10007000DEBFCDBF0E9440000C94AD000C94000088
:100080001CE214B911E51CBD80E090E05FEF54B9AB
:1000900048EF4AB94FE04BB9000059B1577057309B
:1000A000D9F7000059B157705730D9F34CD059B136
:1000B00057705730B1F35FE75BB9000059B1577023
:1000C0005730A9F45FEB5BB9000059B15770573056
:1000D00089F45FED5BB9000059B15770573069F48E
:1000E0005FEE5BB9000059B15770573049F4EAE34D
:1000F000F1E009C0EDE3F1E006C0E0E4F1E003C0A7
:10010000E3E4F1E000C0569510F44591FCCF449132
:100110004A3089F04F3041F01AE0919F942F802DA2
:10012000840F00241124B6CF2A988EBD2DB527FF49
:10013000FDCF2A9AAFCF50E0ADCF010203040506F0
:100140000708090A000F5FEF6FEF7AE07A95F1F781
:0E0150006A95D9F75A95C1F70895F894FFCF34
:00000001FF
