:020000020000FC
:100000000C9404000C94E00048E04EBF4FEF4DBF4D
:1000100043E04093690041E04DBB7894A0E35A9AD5
:1000200000E40CBD0FEF0AB95298209A219A3D9A2C
:1000300028989FD024D021E000EC32D09AD00C94A4
:1000400021000E94D600399A419898D0419A399857
:100050003199FECF319BFECF3199FECF43D042D0B4
:1000600041D0932F98173CF408D0382F0E9482007B
:1000700000EC16D0E6CF459AF8CF4598089503E3F3
:100080000FD077D002E30CD074D008E209D071D041
:100090000CE006D001E004D06CD006E001D0089559
:1000A000B02FB07FBBB92998289A5BD028985CD034
:1000B000B02FB295B07FBBB9289A53D0289854D0AE
:1000C0000895B02FB07FBBB9299A289A4AD02898B2
:1000D0004BD0B02FB295B07FBBB9289A42D02898A8
:1000E00043D0089518E03327319BFECF51D0319B88
:1000F00003C00894331F01C0330F3199FECF1A9506
:1001000099F70895C32F343EF8F4C4364AF0D4E684
:100110000E94AA000A0F0E9461002BD0CA307AF018
:10012000CA303AF0DAE00E94AA000A0F0E94610089
:1001300020D00C2F0A0F0E9461001BD0089500E30D
:100140000E94610016D0F5CF02E30E94610011D039
:10015000C85CE6CF0027CD171AF00395CD1BFBCF67
:1001600008950000000008954AE5FBDF4A95E9F78D
:10017000089558E2F9DF5A95E9F708955FEF62EDC7
:1001800072E07A95F1F76A95D9F75A95C1F7089513
:10019000442746BD44E647BD4AE045BD45B341FF5F
:1001A000FDCF442745BD42E045BB08954FEF5FEFCB
:1001B00064E16A95F1F75A95D9F74A95C1F7089520
:0A01C0000DB507FFFDCF8EB51895B1
:00000001FF
